{
  "contractName": "Commend",
  "abi": [
    {
      "anonymous": false,
      "inputs": [
        {
          "indexed": false,
          "internalType": "address",
          "name": "nftContract",
          "type": "address"
        },
        {
          "indexed": false,
          "internalType": "uint256",
          "name": "tokenId",
          "type": "uint256"
        },
        {
          "indexed": false,
          "internalType": "address",
          "name": "seller",
          "type": "address"
        },
        {
          "indexed": false,
          "internalType": "address",
          "name": "owner",
          "type": "address"
        }
      ],
      "name": "NFTDeleted",
      "type": "event"
    },
    {
      "anonymous": false,
      "inputs": [
        {
          "indexed": false,
          "internalType": "address",
          "name": "nftContract",
          "type": "address"
        },
        {
          "indexed": false,
          "internalType": "uint256",
          "name": "tokenId",
          "type": "uint256"
        },
        {
          "indexed": false,
          "internalType": "address",
          "name": "seller",
          "type": "address"
        },
        {
          "indexed": false,
          "internalType": "address",
          "name": "owner",
          "type": "address"
        }
      ],
      "name": "NFTListed",
      "type": "event"
    },
    {
      "anonymous": false,
      "inputs": [
        {
          "indexed": false,
          "internalType": "address",
          "name": "nftContract",
          "type": "address"
        },
        {
          "indexed": false,
          "internalType": "uint256",
          "name": "tokenId",
          "type": "uint256"
        },
        {
          "indexed": false,
          "internalType": "address",
          "name": "seller",
          "type": "address"
        },
        {
          "indexed": false,
          "internalType": "address",
          "name": "owner",
          "type": "address"
        }
      ],
      "name": "NFTSold",
      "type": "event"
    },
    {
      "inputs": [
        {
          "internalType": "uint256",
          "name": "_tokenId",
          "type": "uint256"
        },
        {
          "internalType": "uint256",
          "name": "_commendCount",
          "type": "uint256"
        },
        {
          "internalType": "string",
          "name": "_description",
          "type": "string"
        }
      ],
      "name": "giveCommend",
      "outputs": [],
      "stateMutability": "payable",
      "type": "function",
      "payable": true
    },
    {
      "inputs": [
        {
          "internalType": "uint256",
          "name": "_tokenId",
          "type": "uint256"
        }
      ],
      "name": "getCommendations",
      "outputs": [
        {
          "components": [
            {
              "internalType": "address",
              "name": "commender",
              "type": "address"
            },
            {
              "internalType": "string",
              "name": "description",
              "type": "string"
            },
            {
              "internalType": "uint256",
              "name": "timestamp",
              "type": "uint256"
            }
          ],
          "internalType": "struct Commend.Commendation[]",
          "name": "",
          "type": "tuple[]"
        }
      ],
      "stateMutability": "view",
      "type": "function",
      "constant": true
    },
    {
      "inputs": [
        {
          "internalType": "uint256",
          "name": "_tokenId",
          "type": "uint256"
        }
      ],
      "name": "deleteNft",
      "outputs": [],
      "stateMutability": "nonpayable",
      "type": "function"
    },
    {
      "inputs": [
        {
          "internalType": "address",
          "name": "_nftContract",
          "type": "address"
        },
        {
          "internalType": "uint256",
          "name": "_tokenId",
          "type": "uint256"
        }
      ],
      "name": "listNft",
      "outputs": [],
      "stateMutability": "payable",
      "type": "function",
      "payable": true
    },
    {
      "inputs": [
        {
          "internalType": "address",
          "name": "_address",
          "type": "address"
        }
      ],
      "name": "hasListedNft",
      "outputs": [
        {
          "internalType": "bool",
          "name": "",
          "type": "bool"
        }
      ],
      "stateMutability": "view",
      "type": "function",
      "constant": true
    },
    {
      "inputs": [],
      "name": "getListedNfts",
      "outputs": [
        {
          "components": [
            {
              "internalType": "address",
              "name": "nftContract",
              "type": "address"
            },
            {
              "internalType": "uint256",
              "name": "tokenId",
              "type": "uint256"
            },
            {
              "internalType": "address payable",
              "name": "seller",
              "type": "address"
            },
            {
              "internalType": "address payable",
              "name": "owner",
              "type": "address"
            },
            {
              "internalType": "bool",
              "name": "listed",
              "type": "bool"
            },
            {
              "internalType": "uint256",
              "name": "commendCount",
              "type": "uint256"
            }
          ],
          "internalType": "struct Commend.NFT[]",
          "name": "",
          "type": "tuple[]"
        }
      ],
      "stateMutability": "view",
      "type": "function",
      "constant": true
    },
    {
      "inputs": [],
      "name": "getMyNfts",
      "outputs": [
        {
          "components": [
            {
              "internalType": "address",
              "name": "nftContract",
              "type": "address"
            },
            {
              "internalType": "uint256",
              "name": "tokenId",
              "type": "uint256"
            },
            {
              "internalType": "address payable",
              "name": "seller",
              "type": "address"
            },
            {
              "internalType": "address payable",
              "name": "owner",
              "type": "address"
            },
            {
              "internalType": "bool",
              "name": "listed",
              "type": "bool"
            },
            {
              "internalType": "uint256",
              "name": "commendCount",
              "type": "uint256"
            }
          ],
          "internalType": "struct Commend.NFT[]",
          "name": "",
          "type": "tuple[]"
        }
      ],
      "stateMutability": "view",
      "type": "function",
      "constant": true
    },
    {
      "inputs": [],
      "name": "getMyListedNfts",
      "outputs": [
        {
          "components": [
            {
              "internalType": "address",
              "name": "nftContract",
              "type": "address"
            },
            {
              "internalType": "uint256",
              "name": "tokenId",
              "type": "uint256"
            },
            {
              "internalType": "address payable",
              "name": "seller",
              "type": "address"
            },
            {
              "internalType": "address payable",
              "name": "owner",
              "type": "address"
            },
            {
              "internalType": "bool",
              "name": "listed",
              "type": "bool"
            },
            {
              "internalType": "uint256",
              "name": "commendCount",
              "type": "uint256"
            }
          ],
          "internalType": "struct Commend.NFT[]",
          "name": "",
          "type": "tuple[]"
        }
      ],
      "stateMutability": "view",
      "type": "function",
      "constant": true
    }
  ],
  "bytecode": "0x608060405234801561001057600080fd5b506001600081905550612398806100286000396000f3fe60806040526004361061007b5760003560e01c8063b4d554a71161004e578063b4d554a71461011d578063c2f9312d1461015a578063ec42697b14610176578063f6b157a8146101b35761007b565b8063047b07bf14610080578063192027eb146100ab5780631f4cc4db146100c75780638d6cb3fb146100f2575b600080fd5b34801561008c57600080fd5b506100956101dc565b6040516100a29190611735565b60405180910390f35b6100c560048036038101906100c091906117c3565b61050f565b005b3480156100d357600080fd5b506100dc610850565b6040516100e99190611735565b60405180910390f35b3480156100fe57600080fd5b50610107610bf5565b6040516101149190611735565b60405180910390f35b34801561012957600080fd5b50610144600480360381019061013f9190611803565b610e5d565b604051610151919061183f565b60405180910390f35b610174600480360381019061016f91906119a0565b610eb3565b005b34801561018257600080fd5b5061019d60048036038101906101989190611a0f565b6110b0565b6040516101aa9190611bcd565b60405180910390f35b3480156101bf57600080fd5b506101da60048036038101906101d59190611a0f565b611214565b005b606060006101ea600261147e565b90506000805b8281101561028f573373ffffffffffffffffffffffffffffffffffffffff16600360006001846102209190611c1e565b815260200190815260200160002060030160009054906101000a900473ffffffffffffffffffffffffffffffffffffffff1673ffffffffffffffffffffffffffffffffffffffff160361027c57818061027890611c52565b9250505b808061028790611c52565b9150506101f0565b5060008167ffffffffffffffff8111156102ac576102ab611875565b5b6040519080825280602002602001820160405280156102e557816020015b6102d26114fb565b8152602001906001900390816102ca5790505b5090506000805b84811015610504573373ffffffffffffffffffffffffffffffffffffffff166003600060018461031c9190611c1e565b815260200190815260200160002060030160009054906101000a900473ffffffffffffffffffffffffffffffffffffffff1673ffffffffffffffffffffffffffffffffffffffff16036104f1576003600060018361037a9190611c1e565b81526020019081526020016000206040518060c00160405290816000820160009054906101000a900473ffffffffffffffffffffffffffffffffffffffff1673ffffffffffffffffffffffffffffffffffffffff1673ffffffffffffffffffffffffffffffffffffffff168152602001600182015481526020016002820160009054906101000a900473ffffffffffffffffffffffffffffffffffffffff1673ffffffffffffffffffffffffffffffffffffffff1673ffffffffffffffffffffffffffffffffffffffff1681526020016003820160009054906101000a900473ffffffffffffffffffffffffffffffffffffffff1673ffffffffffffffffffffffffffffffffffffffff1673ffffffffffffffffffffffffffffffffffffffff1681526020016003820160149054906101000a900460ff161515151581526020016004820154815250508383815181106104d7576104d6611c9a565b5b602002602001018190525081806104ed90611c52565b9250505b80806104fc90611c52565b9150506102ec565b508194505050505090565b61051761148c565b600560003373ffffffffffffffffffffffffffffffffffffffff1673ffffffffffffffffffffffffffffffffffffffff16815260200190815260200160002060009054906101000a900460ff16156105a4576040517f08c379a000000000000000000000000000000000000000000000000000000000815260040161059b90611d26565b60405180910390fd5b8173ffffffffffffffffffffffffffffffffffffffff166323b872dd3330846040518463ffffffff1660e01b81526004016105e193929190611d64565b600060405180830381600087803b1580156105fb57600080fd5b505af115801561060f573d6000803e3d6000fd5b5050505061061d60026114db565b6040518060c001604052808373ffffffffffffffffffffffffffffffffffffffff1681526020018281526020013373ffffffffffffffffffffffffffffffffffffffff1681526020013073ffffffffffffffffffffffffffffffffffffffff16815260200160011515815260200160008152506003600083815260200190815260200160002060008201518160000160006101000a81548173ffffffffffffffffffffffffffffffffffffffff021916908373ffffffffffffffffffffffffffffffffffffffff1602179055506020820151816001015560408201518160020160006101000a81548173ffffffffffffffffffffffffffffffffffffffff021916908373ffffffffffffffffffffffffffffffffffffffff16021790555060608201518160030160006101000a81548173ffffffffffffffffffffffffffffffffffffffff021916908373ffffffffffffffffffffffffffffffffffffffff16021790555060808201518160030160146101000a81548160ff02191690831515021790555060a082015181600401559050506001600560003373ffffffffffffffffffffffffffffffffffffffff1673ffffffffffffffffffffffffffffffffffffffff16815260200190815260200160002060006101000a81548160ff0219169083151502179055507f232534bbd51d7cde87652214a8c8454ac134ea309ff79aed199c676bebca94b98282333060405161083c9493929190611d9b565b60405180910390a161084c6114f1565b5050565b6060600061085e600261147e565b90506000805b8281101561093c573373ffffffffffffffffffffffffffffffffffffffff16600360006001846108949190611c1e565b815260200190815260200160002060020160009054906101000a900473ffffffffffffffffffffffffffffffffffffffff1673ffffffffffffffffffffffffffffffffffffffff161480156109155750600360006001836108f59190611c1e565b815260200190815260200160002060030160149054906101000a900460ff165b1561092957818061092590611c52565b9250505b808061093490611c52565b915050610864565b5060008167ffffffffffffffff81111561095957610958611875565b5b60405190808252806020026020018201604052801561099257816020015b61097f6114fb565b8152602001906001900390816109775790505b5090506000805b84811015610bea573373ffffffffffffffffffffffffffffffffffffffff16600360006001846109c99190611c1e565b815260200190815260200160002060020160009054906101000a900473ffffffffffffffffffffffffffffffffffffffff1673ffffffffffffffffffffffffffffffffffffffff16148015610a4a575060036000600183610a2a9190611c1e565b815260200190815260200160002060030160149054906101000a900460ff165b15610bd75760036000600183610a609190611c1e565b81526020019081526020016000206040518060c00160405290816000820160009054906101000a900473ffffffffffffffffffffffffffffffffffffffff1673ffffffffffffffffffffffffffffffffffffffff1673ffffffffffffffffffffffffffffffffffffffff168152602001600182015481526020016002820160009054906101000a900473ffffffffffffffffffffffffffffffffffffffff1673ffffffffffffffffffffffffffffffffffffffff1673ffffffffffffffffffffffffffffffffffffffff1681526020016003820160009054906101000a900473ffffffffffffffffffffffffffffffffffffffff1673ffffffffffffffffffffffffffffffffffffffff1673ffffffffffffffffffffffffffffffffffffffff1681526020016003820160149054906101000a900460ff16151515158152602001600482015481525050838381518110610bbd57610bbc611c9a565b5b60200260200101819052508180610bd390611c52565b9250505b8080610be290611c52565b915050610999565b508194505050505090565b60606000610c03600261147e565b90506000610c11600161147e565b82610c1c9190611de0565b905060008167ffffffffffffffff811115610c3a57610c39611875565b5b604051908082528060200260200182016040528015610c7357816020015b610c606114fb565b815260200190600190039081610c585790505b5090506000805b84811015610e525760036000600183610c939190611c1e565b815260200190815260200160002060030160149054906101000a900460ff1615610e3f5760036000600183610cc89190611c1e565b81526020019081526020016000206040518060c00160405290816000820160009054906101000a900473ffffffffffffffffffffffffffffffffffffffff1673ffffffffffffffffffffffffffffffffffffffff1673ffffffffffffffffffffffffffffffffffffffff168152602001600182015481526020016002820160009054906101000a900473ffffffffffffffffffffffffffffffffffffffff1673ffffffffffffffffffffffffffffffffffffffff1673ffffffffffffffffffffffffffffffffffffffff1681526020016003820160009054906101000a900473ffffffffffffffffffffffffffffffffffffffff1673ffffffffffffffffffffffffffffffffffffffff1673ffffffffffffffffffffffffffffffffffffffff1681526020016003820160149054906101000a900460ff16151515158152602001600482015481525050838381518110610e2557610e24611c9a565b5b60200260200101819052508180610e3b90611c52565b9250505b8080610e4a90611c52565b915050610c7a565b508194505050505090565b6000600560008373ffffffffffffffffffffffffffffffffffffffff1673ffffffffffffffffffffffffffffffffffffffff16815260200190815260200160002060009054906101000a900460ff169050919050565b60006003600085815260200190815260200160002090508060030160149054906101000a900460ff16610f1b576040517f08c379a0000000000000000000000000000000000000000000000000000000008152600401610f1290611e60565b60405180910390fd5b8060020160009054906101000a900473ffffffffffffffffffffffffffffffffffffffff1673ffffffffffffffffffffffffffffffffffffffff166108fc849081150290604051600060405180830381858888f19350505050610fb3576040517f08c379a0000000000000000000000000000000000000000000000000000000008152600401610faa90611ecc565b60405180910390fd5b600060405180606001604052803373ffffffffffffffffffffffffffffffffffffffff1681526020018481526020014281525090506004600086815260200190815260200160002081908060018154018082558091505060019003906000526020600020906003020160009091909190915060008201518160000160006101000a81548173ffffffffffffffffffffffffffffffffffffffff021916908373ffffffffffffffffffffffffffffffffffffffff160217905550602082015181600101908161108191906120f8565b50604082015181600201555050838260040160008282546110a29190611c1e565b925050819055505050505050565b606060046000838152602001908152602001600020805480602002602001604051908101604052809291908181526020016000905b8282101561120957838290600052602060002090600302016040518060600160405290816000820160009054906101000a900473ffffffffffffffffffffffffffffffffffffffff1673ffffffffffffffffffffffffffffffffffffffff1673ffffffffffffffffffffffffffffffffffffffff16815260200160018201805461116e90611f1b565b80601f016020809104026020016040519081016040528092919081815260200182805461119a90611f1b565b80156111e75780601f106111bc576101008083540402835291602001916111e7565b820191906000526020600020905b8154815290600101906020018083116111ca57829003601f168201915b50505050508152602001600282015481525050815260200190600101906110e5565b505050509050919050565b61121c61148c565b60006003600083815260200190815260200160002090508060030160149054906101000a900460ff16611284576040517f08c379a000000000000000000000000000000000000000000000000000000000815260040161127b90611e60565b60405180910390fd5b3373ffffffffffffffffffffffffffffffffffffffff168160020160009054906101000a900473ffffffffffffffffffffffffffffffffffffffff1673ffffffffffffffffffffffffffffffffffffffff1614611316576040517f08c379a000000000000000000000000000000000000000000000000000000000815260040161130d9061223c565b60405180910390fd5b60036000838152602001908152602001600020600080820160006101000a81549073ffffffffffffffffffffffffffffffffffffffff021916905560018201600090556002820160006101000a81549073ffffffffffffffffffffffffffffffffffffffff02191690556003820160006101000a81549073ffffffffffffffffffffffffffffffffffffffff02191690556003820160146101000a81549060ff0219169055600482016000905550507f48359e48a1f5ed61bd9a9b6a18ff557528271bcb297f07813c282639197d138b8160000160009054906101000a900473ffffffffffffffffffffffffffffffffffffffff1682600101548360020160009054906101000a900473ffffffffffffffffffffffffffffffffffffffff168460030160009054906101000a900473ffffffffffffffffffffffffffffffffffffffff1660405161146a94939291906122b1565b60405180910390a15061147b6114f1565b50565b600081600001549050919050565b6002600054036114d1576040517f08c379a00000000000000000000000000000000000000000000000000000000081526004016114c890612342565b60405180910390fd5b6002600081905550565b6001816000016000828254019250508190555050565b6001600081905550565b6040518060c00160405280600073ffffffffffffffffffffffffffffffffffffffff16815260200160008152602001600073ffffffffffffffffffffffffffffffffffffffff168152602001600073ffffffffffffffffffffffffffffffffffffffff168152602001600015158152602001600081525090565b600081519050919050565b600082825260208201905092915050565b6000819050602082019050919050565b600073ffffffffffffffffffffffffffffffffffffffff82169050919050565b60006115cc826115a1565b9050919050565b6115dc816115c1565b82525050565b6000819050919050565b6115f5816115e2565b82525050565b6000611606826115a1565b9050919050565b611616816115fb565b82525050565b60008115159050919050565b6116318161161c565b82525050565b60c08201600082015161164d60008501826115d3565b50602082015161166060208501826115ec565b506040820151611673604085018261160d565b506060820151611686606085018261160d565b5060808201516116996080850182611628565b5060a08201516116ac60a08501826115ec565b50505050565b60006116be8383611637565b60c08301905092915050565b6000602082019050919050565b60006116e282611575565b6116ec8185611580565b93506116f783611591565b8060005b8381101561172857815161170f88826116b2565b975061171a836116ca565b9250506001810190506116fb565b5085935050505092915050565b6000602082019050818103600083015261174f81846116d7565b905092915050565b6000604051905090565b600080fd5b600080fd5b611774816115c1565b811461177f57600080fd5b50565b6000813590506117918161176b565b92915050565b6117a0816115e2565b81146117ab57600080fd5b50565b6000813590506117bd81611797565b92915050565b600080604083850312156117da576117d9611761565b5b60006117e885828601611782565b92505060206117f9858286016117ae565b9150509250929050565b60006020828403121561181957611818611761565b5b600061182784828501611782565b91505092915050565b6118398161161c565b82525050565b60006020820190506118546000830184611830565b92915050565b600080fd5b600080fd5b6000601f19601f8301169050919050565b7f4e487b7100000000000000000000000000000000000000000000000000000000600052604160045260246000fd5b6118ad82611864565b810181811067ffffffffffffffff821117156118cc576118cb611875565b5b80604052505050565b60006118df611757565b90506118eb82826118a4565b919050565b600067ffffffffffffffff82111561190b5761190a611875565b5b61191482611864565b9050602081019050919050565b82818337600083830152505050565b600061194361193e846118f0565b6118d5565b90508281526020810184848401111561195f5761195e61185f565b5b61196a848285611921565b509392505050565b600082601f8301126119875761198661185a565b5b8135611997848260208601611930565b91505092915050565b6000806000606084860312156119b9576119b8611761565b5b60006119c7868287016117ae565b93505060206119d8868287016117ae565b925050604084013567ffffffffffffffff8111156119f9576119f8611766565b5b611a0586828701611972565b9150509250925092565b600060208284031215611a2557611a24611761565b5b6000611a33848285016117ae565b91505092915050565b600081519050919050565b600082825260208201905092915050565b6000819050602082019050919050565b600081519050919050565b600082825260208201905092915050565b60005b83811015611aa2578082015181840152602081019050611a87565b60008484015250505050565b6000611ab982611a68565b611ac38185611a73565b9350611ad3818560208601611a84565b611adc81611864565b840191505092915050565b6000606083016000830151611aff60008601826115d3565b5060208301518482036020860152611b178282611aae565b9150506040830151611b2c60408601826115ec565b508091505092915050565b6000611b438383611ae7565b905092915050565b6000602082019050919050565b6000611b6382611a3c565b611b6d8185611a47565b935083602082028501611b7f85611a58565b8060005b85811015611bbb5784840389528151611b9c8582611b37565b9450611ba783611b4b565b925060208a01995050600181019050611b83565b50829750879550505050505092915050565b60006020820190508181036000830152611be78184611b58565b905092915050565b7f4e487b7100000000000000000000000000000000000000000000000000000000600052601160045260246000fd5b6000611c29826115e2565b9150611c34836115e2565b9250828201905080821115611c4c57611c4b611bef565b5b92915050565b6000611c5d826115e2565b91507fffffffffffffffffffffffffffffffffffffffffffffffffffffffffffffffff8203611c8f57611c8e611bef565b5b600182019050919050565b7f4e487b7100000000000000000000000000000000000000000000000000000000600052603260045260246000fd5b600082825260208201905092915050565b7f596f752063616e206f6e6c79206c697374206f6e65204e465400000000000000600082015250565b6000611d10601983611cc9565b9150611d1b82611cda565b602082019050919050565b60006020820190508181036000830152611d3f81611d03565b9050919050565b611d4f816115c1565b82525050565b611d5e816115e2565b82525050565b6000606082019050611d796000830186611d46565b611d866020830185611d46565b611d936040830184611d55565b949350505050565b6000608082019050611db06000830187611d46565b611dbd6020830186611d55565b611dca6040830185611d46565b611dd76060830184611d46565b95945050505050565b6000611deb826115e2565b9150611df6836115e2565b9250828203905081811115611e0e57611e0d611bef565b5b92915050565b7f4e4654206973206e6f74206c6973746564000000000000000000000000000000600082015250565b6000611e4a601183611cc9565b9150611e5582611e14565b602082019050919050565b60006020820190508181036000830152611e7981611e3d565b9050919050565b7f5472616e73666572206661696c65640000000000000000000000000000000000600082015250565b6000611eb6600f83611cc9565b9150611ec182611e80565b602082019050919050565b60006020820190508181036000830152611ee581611ea9565b9050919050565b7f4e487b7100000000000000000000000000000000000000000000000000000000600052602260045260246000fd5b60006002820490506001821680611f3357607f821691505b602082108103611f4657611f45611eec565b5b50919050565b60008190508160005260206000209050919050565b60006020601f8301049050919050565b600082821b905092915050565b600060088302611fae7fffffffffffffffffffffffffffffffffffffffffffffffffffffffffffffffff82611f71565b611fb88683611f71565b95508019841693508086168417925050509392505050565b6000819050919050565b6000611ff5611ff0611feb846115e2565b611fd0565b6115e2565b9050919050565b6000819050919050565b61200f83611fda565b61202361201b82611ffc565b848454611f7e565b825550505050565b600090565b61203861202b565b612043818484612006565b505050565b5b818110156120675761205c600082612030565b600181019050612049565b5050565b601f8211156120ac5761207d81611f4c565b61208684611f61565b81016020851015612095578190505b6120a96120a185611f61565b830182612048565b50505b505050565b600082821c905092915050565b60006120cf600019846008026120b1565b1980831691505092915050565b60006120e883836120be565b9150826002028217905092915050565b61210182611a68565b67ffffffffffffffff81111561211a57612119611875565b5b6121248254611f1b565b61212f82828561206b565b600060209050601f8311600181146121625760008415612150578287015190505b61215a85826120dc565b8655506121c2565b601f19841661217086611f4c565b60005b8281101561219857848901518255600182019150602085019450602081019050612173565b868310156121b557848901516121b1601f8916826120be565b8355505b6001600288020188555050505b505050505050565b7f4f6e6c79207468652073656c6c65722063616e2064656c65746520746865204e60008201527f4654000000000000000000000000000000000000000000000000000000000000602082015250565b6000612226602283611cc9565b9150612231826121ca565b604082019050919050565b6000602082019050818103600083015261225581612219565b9050919050565b600061227761227261226d846115a1565b611fd0565b6115a1565b9050919050565b60006122898261225c565b9050919050565b600061229b8261227e565b9050919050565b6122ab81612290565b82525050565b60006080820190506122c66000830187611d46565b6122d36020830186611d55565b6122e060408301856122a2565b6122ed60608301846122a2565b95945050505050565b7f5265656e7472616e637947756172643a207265656e7472616e742063616c6c00600082015250565b600061232c601f83611cc9565b9150612337826122f6565b602082019050919050565b6000602082019050818103600083015261235b8161231f565b905091905056fea2646970667358221220a905ca8c7afae3265b86dabec1fd908d75d3c110cc704599a825032e1012074164736f6c63430008110033",
  "immutableReferences": {},
  "source": "// SPDX-License-Identifier: MIT\npragma solidity ^0.8.13;\n\nimport \"@openzeppelin/contracts/utils/Counters.sol\";\nimport \"@openzeppelin/contracts/token/ERC721/ERC721.sol\";\nimport \"@openzeppelin/contracts/security/ReentrancyGuard.sol\";\n\ncontract Commend is ReentrancyGuard {\n    using Counters for Counters.Counter;\n    Counters.Counter private _nftsSold;\n    Counters.Counter private _nftCount;\n\n    mapping(uint256 => NFT) private _idToNFT;\n    mapping(uint256 => Commendation[]) private _idToCommendations;\n\n    mapping(address => bool) private _hasListedNft;\n    mapping(address => uint256) private _sellerCommendCounts;\n    mapping(address => bool) private _hasGivenCommendation;\n    mapping(uint256 => address[]) private _nftCommendations;\n\n    struct NFT {\n        address nftContract;\n        uint256 tokenId;\n        address payable seller;\n        address payable owner;\n        bool listed;\n        uint256 commendCount;\n        // string[] descriptions;\n        // string[] addressCommender;\n    }\n\n    struct Commendation {\n        address commender;\n        string description;\n        uint256 timestamp;\n    }\n\n    event NFTListed(\n        address nftContract,\n        uint256 tokenId,\n        address seller,\n        address owner\n    );\n\n    event NFTSold(\n        address nftContract,\n        uint256 tokenId,\n        address seller,\n        address owner\n    );\n\n    event NFTDeleted(\n        address nftContract,\n        uint256 tokenId,\n        address seller,\n        address owner\n    );\n\n    function giveCommend(\n        uint256 _tokenId,\n        uint256 _commendCount,\n        string memory _description\n    ) public payable {\n        // Ensure that the NFT exists and is listed\n        NFT storage nft = _idToNFT[_tokenId];\n        require(nft.listed, \"NFT is not listed\");\n\n        // send the heat to the seller of the NFT\n        require(payable((nft.seller)).send(_commendCount), \"Transfer failed\");\n\n        // Create a new commendation and add it to the _idToCommendations mapping\n        Commendation memory newCommendation = Commendation(\n            msg.sender,\n            _description,\n            block.timestamp\n        );\n        _idToCommendations[_tokenId].push(newCommendation);\n\n        // Increment the commendCount of the NFT by the given amount\n        nft.commendCount += _commendCount;\n    }\n\n    // Add this function in your smart contract\n    // Add this function in your smart contract\n    function getCommendations(\n        uint256 _tokenId\n    ) public view returns (Commendation[] memory) {\n        return _idToCommendations[_tokenId];\n    }\n\n    // function to send commend to the owner of the NFTs, respectivly\n\n    function deleteNft(uint256 _tokenId) public nonReentrant {\n        // Ensure that the NFT exists and is listed\n        NFT storage nft = _idToNFT[_tokenId];\n        require(nft.listed, \"NFT is not listed\");\n\n        // Ensure that the seller of the NFT is the one calling this function\n        require(nft.seller == msg.sender, \"Only the seller can delete the NFT\");\n\n        // Remove the NFT from the marketplace\n        delete _idToNFT[_tokenId];\n\n        emit NFTDeleted(nft.nftContract, nft.tokenId, nft.seller, nft.owner);\n    }\n\n    // List the NFT on the marketplace\n    function listNft(\n        address _nftContract,\n        uint256 _tokenId\n    ) public payable nonReentrant {\n        require(!_hasListedNft[msg.sender], \"You can only list one NFT\");\n\n        IERC721(_nftContract).transferFrom(msg.sender, address(this), _tokenId);\n\n        _nftCount.increment();\n\n        _idToNFT[_tokenId] = NFT(\n            _nftContract,\n            _tokenId,\n            payable(msg.sender),\n            payable(address(this)),\n            true,\n            0\n        );\n\n        _hasListedNft[msg.sender] = true;\n\n        emit NFTListed(_nftContract, _tokenId, msg.sender, address(this));\n    }\n\n    function hasListedNft(address _address) public view returns (bool) {\n        return _hasListedNft[_address];\n    }\n\n    function getListedNfts() public view returns (NFT[] memory) {\n        uint256 nftCount = _nftCount.current();\n        uint256 unsoldNftsCount = nftCount - _nftsSold.current();\n\n        NFT[] memory nfts = new NFT[](unsoldNftsCount);\n        uint256 nftsIndex = 0;\n        for (uint256 i = 0; i < nftCount; i++) {\n            if (_idToNFT[i + 1].listed) {\n                nfts[nftsIndex] = _idToNFT[i + 1];\n                nftsIndex++;\n            }\n        }\n        return nfts;\n    }\n\n    function getMyNfts() public view returns (NFT[] memory) {\n        uint256 nftCount = _nftCount.current();\n        uint256 myNftCount = 0;\n        for (uint256 i = 0; i < nftCount; i++) {\n            if (_idToNFT[i + 1].owner == msg.sender) {\n                myNftCount++;\n            }\n        }\n\n        NFT[] memory nfts = new NFT[](myNftCount);\n        uint256 nftsIndex = 0;\n        for (uint256 i = 0; i < nftCount; i++) {\n            if (_idToNFT[i + 1].owner == msg.sender) {\n                nfts[nftsIndex] = _idToNFT[i + 1];\n                nftsIndex++;\n            }\n        }\n        return nfts;\n    }\n\n    function getMyListedNfts() public view returns (NFT[] memory) {\n        uint256 nftCount = _nftCount.current();\n        uint256 myListedNftCount = 0;\n        for (uint256 i = 0; i < nftCount; i++) {\n            if (\n                _idToNFT[i + 1].seller == msg.sender && _idToNFT[i + 1].listed\n            ) {\n                myListedNftCount++;\n            }\n        }\n\n        NFT[] memory nfts = new NFT[](myListedNftCount);\n        uint256 nftsIndex = 0;\n        for (uint256 i = 0; i < nftCount; i++) {\n            if (\n                _idToNFT[i + 1].seller == msg.sender && _idToNFT[i + 1].listed\n            ) {\n                nfts[nftsIndex] = _idToNFT[i + 1];\n                nftsIndex++;\n            }\n        }\n        return nfts;\n    }\n}\n",
  "sourcePath": "/Users/chrisabdo/scalingethereum/scalingethereum/backend/contracts/Commend.sol",
  "compiler": {
    "name": "solc",
    "version": "0.8.17+commit.8df45f5f.Emscripten.clang"
  },
  "schemaVersion": "3.4.13",
  "updatedAt": "2023-03-24T03:21:30.092Z",
  "networkType": "ethereum",
  "devdoc": {
    "kind": "dev",
    "methods": {},
    "version": 1
  },
  "userdoc": {
    "kind": "user",
    "methods": {},
    "version": 1
  }
}